201603010010000400000000000000000135                8000000000030624113744SURVIVAL SRL.                 000000000968000000000000000000000000000000000000000000000000000000000000000000000000000000000000000000000000000000000000PES00010000001 00000000016800000000000000000000000000000                              000000000000000
201603020010000200000000000000001260                8000000000030709483621RRM FRAGANCIAS S.R.L.         000000003473910000000000000000000000000000000000000000000000000000000000000000000000000000000000000000000000000000000000PES00010000001 00000000060291000000000000000000000000000                              000000000000000
201603030110000200000000000000000527                8000000000027101443049ALPES DE GARCIA MABEL EDTIH   000000000084000000000000000000000000000000000000000000000000000000000000000000000000000000000000000000000000000000000000PES00010000000N00000000000000000000000000000000000000000                              000000000000000
201603020010000300000000000000030581                8000000000030708210311ASMEL S.A.                    000000000068970000000000000000000000000000000000000000000000000000000000000000000000000000000000000000000000000000000000PES00010000001 00000000001197000000000000000000000000000                              000000000000000
201603030110000100000000000000000042                8000000000020297186427ALVAREZ GINER ALFREDO         000000000030000000000000000000000000000000000000000000000000000000000000000000000000000000000000000000000000000000000000PES00010000000N00000000000000000000000000000000000000000                              000000000000000
201603070110000100000000000000000084                8000000000020228484726FLETE SEBASTIAN URSO          000000000054000000000000000000000000000000000000000000000000000000000000000000000000000000000000000000000000000000000000PES00010000000N00000000000000000000000000000000000000000                              000000000000000
201603030010000500000000000000015983                8000000000030708017759NEW HIGH PACK                 000000001582026000000000000000000000000000000000000000000000000000000000000000000000001306000000000000000000000000000000PES00010000001 00000000027434000000000000000000000000000                              000000000000000
201603010010000100000000000006044453                8000000000011111111111MUNICIPALIDAD DE SAN MARTIN   000000000162059000000000000000000000000000000000000000000000000000000000000000000000000000000000000000000000000000000000PES00010000001N00000000000000000000000000000000000000000                              000000000000000
201603040010000400000000000000000137                8000000000030624113744SURVIVAL SRL.                 000000000822800000000000000000000000000000000000000000000000000000000000000000000000000000000000000000000000000000000000PES00010000001 00000000014280000000000000000000000000000                              000000000000000
201603100010000100000000000000037698                8000000000020281686543WITPEL PAPELERA               000000000136439000000000000000000000000000000000000000000000000000000000000000000000000000000000000000000000000000000000PES00010000001 00000000002368000000000000000000000000000                              000000000000000
201603030010000800000000000000040981                8000000000030540873832IVESS ROSMINO Y CÍA S.A.      000000000033000000000000000000000000000000000000000000000000000000000000000000000000000000000000000000000000000000000000PES00010000001 00000000000572700000000000000000000000000                              000000000000000
201603110010000100000000000000037743                8000000000020281686543WITPEL PAPELERA               000000000091000000000000000000000000000000000000000000000000000000000000000000000000000000000000000000000000000000000000PES00010000001 00000000001579300000000000000000000000000                              000000000000000
201603110010000400000000000000016065                8000000000030585948817GLAS-CAR S.A.                 000000006726748000000000000000000000000000000000000000000000000000000000000000000000005555000000000000000000000000000000PES00010000001 00000000116648800000000000000000000000000                              000000000000000
201603070010000100000000000000140316                8000000000003333333333SINDICATO PERFUMISTA/COMERCIO 000000000345199000000000000000000000000000000000000000000000000000000000000000000000000000000000000000000000000000000000PES00010000001N00000000000000000000000000000000000000000                              000000000000000
201603150110000100000000000000000180                8000000000023170233689MOTO-RUBEN                    000000000042000000000000000000000000000000000000000000000000000000000000000000000000000000000000000000000000000000000000PES00010000000N00000000000000000000000000000000000000000                              000000000000000
201603140030000200000000000000000023                8000000000030540174780LIESA S.A. ALCOHOLES          000000000338800000000000000000000000000000000000000000000000000000000000000000000000000000000000000000000000000000000000PES00010000001 00000000005880000000000000000000000000000                              000000000000000
201603160110000200000000000000000550                8000000000027101443049ALPES DE GARCIA MABEL EDTIH   000000000024000000000000000000000000000000000000000000000000000000000000000000000000000000000000000000000000000000000000PES00010000000N00000000000000000000000000000000000000000                              000000000000000
201602130010010600000000000001128446                8000000000030709565073AYSA                          000000000047398000000000000000000000000000000000000000000000000000000000000000000000001011000000000000000000000000000000PES00010000001 00000000000986200000000000000000000000000                              000000000000000
201603180110000200000000000000000555                8000000000027101443049ALPES DE GARCIA MABEL EDTIH   000000000054000000000000000000000000000000000000000000000000000000000000000000000000000000000000000000000000000000000000PES00010000000N00000000000000000000000000000000000000000                              000000000000000
201603180010000200000000000000024186                8000000000030709720445FABRIQUÍMICA                  000000000162885000000000000000000000000000000000000000000000000000000000000000000000000135000000000000000000000000000000PES00010000001 00000000002824500000000000000000000000000                              000000000000000
201601250010740700000000000013723384                8000000000030639453738TELECOM                       000000000109723000000000000000000000000000000000000000000000000000000000000000000000000084000000000000000000000000000000PES00010000002 00000000002116200000000000000000000000000                              000000000000000
201603170030000400000000000000002491                8000000000030585948817GLAS-CAR S.A.                 000000000126689000000000000000000000000000000000000000000000000000000000000000000000000105000000000000000000000000000000PES00010000001 00000000002196900000000000000000000000000                              000000000000000
201603180020000400000000000000001580                8000000000030585948817GLAS-CAR S.A.                 000000000126688000000000000000000000000000000000000000000000000000000000000000000000000105000000000000000000000000000000PES00010000001 00000000002196900000000000000000000000000                              000000000000000
201603150010000100000000000000686390                8000000000011111111111MUNICIPALIDAD DE SAN MARTIN   000000000129697000000000000000000000000000000000000000000000000000000000000000000000000000000000000000000000000000000000PES00010000001N00000000000000000000000000000000000000000                              000000000000000
201603160010000100000000000000041387                8000000000030708484977QUIMICA BALLESTER             000000000375288000000000000000000000000000000000000000000000000000000000000000000000000000000000000000000000000000000000PES00010000001 00000000006513300000000000000000000000000                              000000000000000
201603160010000500000000000000016084                8000000000030708017759NEW HIGH PACK                 000000003046634000000000000000000000000000000000000000000000000000000000000000000000002516000000000000000000000000000000PES00010000001 00000000052831800000000000000000000000000                              000000000000000
201603210010000300000000000000016933                8000000000020261680093MULTIMATERIALES               000000000060887000000000000000000000000000000000000000000000000000000000000000000000000000000000000000000000000000000000PES00010000001 00000000001056700000000000000000000000000                              000000000000000
201602290010000100000000000015032016                8000000000030500006613BANCO PATAGONIA S.A.          000000000095039000000000090282000000000000000000000000000000000000000000000000000000001127000000000000000000000000000000PES00010000001 00000000000063000000000000000000000000000                              000000000000000
201603280030000400000000000000002499                8000000000030585948817GLAS-CAR S.A.                 000000000064228000000000000000000000000000000000000000000000000000000000000000000000000053000000000000000000000000000000PES00010000001 00000000001113800000000000000000000000000                              000000000000000
201602240010740400000000000013883921                8000000000030639453738TELECOM                       000000000093023000000000000000000000000000000000000000002148000000000000000000000000000072000000000000000000000000000000PES00010000002 00000000001920400000000000000000000000000                              000000000000000
201603280010000200000000000000001298                8000000000030540174780LIESA S.A. ALCOHOLES          000000000726000000000000000000000000000000000000000000000000000000000000000000000000000000000000000000000000000000000000PES00010000001 00000000012600000000000000000000000000000                              000000000000000
201603290010000300000000000000000134                8000000000027066899883RECALDEMARIA CECILIA          000000003025000000000000000000000000000000000000000000000000000000000000000000000000000000000000000000000000000000000000PES00010000001 00000000052500000000000000000000000000000                              000000000000000
201603310010000800000000000000043231                8000000000030540873832IVESS ROSMINO Y CÍA S.A.      000000000026400000000000000000000000000000000000000000000000000000000000000000000000000000000000000000000000000000000000PES00010000001 00000000000458200000000000000000000000000                              000000000000000
201603310010000300000000000000002306                8000000000030711327033LOVRIC S.A.                   000000000891044000000000000000000000000000000000000000000000000000000000000000000000000000000000000000000000000000000000PES00010000001 00000000015464400000000000000000000000000                              000000000000000
201603310010000200000000000000001279                8000000000030709483621RRM FRAGANCIAS S.R.L.         000000001510080000000000000000000000000000000000000000000000000000000000000000000000000000000000000000000000000000000000PES00010000001 00000000026208000000000000000000000000000                              000000000000000
201603290020000300000000000000000317                8000000000030711327033LOVRIC S.A.                   000000000073291000000000000000000000000000000000000000000000000000000000000000000000000000000000000000000000000000000000PES00010000001 00000000001272000000000000000000000000000                              000000000000000
201603310010000200000000000000000196                8000000000027132373529CAVALLO CRISTINA              000000000302500000000000000000000000000000000000000000000000000000000000000000000000000000000000000000000000000000000000PES00010000001 00000000005250000000000000000000000000000                              000000000000000
201603310010000300000000000000000921                8000000000030710941978VYCA SRL.                     000000000242000000000000000000000000000000000000000000000000000000000000000000000000000000000000000000000000000000000000PES00010000001 00000000004200000000000000000000000000000                              000000000000000
201603150010000200000000000000002386                8000000000030597772323PLASVAN S.A.                  000000001230569000000000000000000000000000000000000000000000000000000000000000000000000000000000000000000000000000000000PES00010000001 00000000021356900000000000000000000000000                              000000000000000
201603100010000800000000000000042039                8000000000030540873832IVESS ROSMINO Y CÍA S.A.      000000000026400000000000000000000000000000000000000000000000000000000000000000000000000000000000000000000000000000000000PES00010000001 00000000000458200000000000000000000000000                              000000000000000
201603140010000200000000000000001234                8000000000030540174780LIESA S.A. ALCOHOLES          000000002032800000000000000000000000000000000000000000000000000000000000000000000000000000000000000000000000000000000000PES00010000001 00000000035280000000000000000000000000000                              000000000000000
201603290010000500000000000000001078                8000000000027046566985MORENO ELSA MARIA             000000000100840000000000000000000000000000000000000000000000000000000000000000000000050625000000000000000000000000000000PES00010000001 00000000000871500000000000000000000000000                              000000000000000
