201603010010000900000000000000000323000000000000000003239600000000030710708025BIGCUORE S.R.L.               000000000872168000000000000000000000000000000000000000000000000000000000000000000000000000000000000000000000000000000000PES00010000001 00000000000000020160401
201603010010000900000000000000000324000000000000000003249600000000033527840029LA TOALLERA                   000000002768238000000000000000000000000000000000000000000000000000000000000000000000000000000000000000000000000000000000PES00010000001 00000000000000020160401
201603020010000900000000000000000326000000000000000003269600000000030710641176VEIGA MARIANO                 000000001001941000000000000000000000000000000000000000000000000000000000000000000000000000000000000000000000000000000000PES00010000001 00000000000000020160401
201603020010000900000000000000000327000000000000000003279600000000030599883394ALPARAMIS S.A.                000000008536889000000000000000000000000000000000000000000000000000000000000000000000000000000000000000000000000000000000PES00010000001 00000000000000020160401
201603020020000900000000000000000009000000000000000000099600000000030709344389PMV S.A.                      000000001027960000000000000000000000000000000000000000000000000000000000000000000000000000000000000000000000000000000000PES00010000001N00000000000000020160401
201603020020000900000000000000000010000000000000000000109600000000030709344389PMV S.A.                      000000000006169000000000000000000000000000000000000000000000000000000000000000000000000000000000000000000000000000000000PES00010000001 00000000000000020160401
201603030060000900000000000000000130000000000000000001309600000000027229633622TOTARO FLORENCIA              000000000116760000000000000000000000000000000000000000000000000000000000000000000000000000000000000000000000000000000000PES00010000001 00000000000000020160401
201603030010000900000000000000000330000000000000000003309600000000030599883394ALPARAMIS S.A.                000000004646400000000000000000000000000000000000000000000000000000000000000000000000000000000000000000000000000000000000PES00010000001 00000000000000020160401
201603030010000900000000000000000331000000000000000003319600000000030710708025BIGCUORE S.R.L.               000000000027981000000000000000000000000000000000000000000000000000000000000000000000000000000000000000000000000000000000PES00010000001 00000000000000020160401
201603040010000900000000000000000332000000000000000003329600000000030714474975MERCOSMETICA                  000000000483879000000000000000000000000000000000000000000000000000000000000000000000000000000000000000000000000000000000PES00010000001 00000000000000020160401
201603010060000900000000000000000129000000000000000001299600000000020134062666ASENJO HECTOR                 000000000057009000000000000000000000000000000000000000000000000000000000000000000000000000000000000000000000000000000000PES00010000001 00000000000000020160401
201603020010000900000000000000000328000000000000000003289600000000030711175292VIEYRA DIEGO                  000000000764552000000000000000000000000000000000000000000000000000000000000000000000000000000000000000000000000000000000PES00010000001 00000000000000020160401
201603020010000900000000000000000329000000000000000003299600000000033527840029LA TOALLERA                   000000000666032000000000000000000000000000000000000000000000000000000000000000000000000000000000000000000000000000000000PES00010000001 00000000000000020160401
201603040060000900000000000000000132000000000000000001329600000000027242724114PARETTO DANIELA FERNANDA      000000000207805000000000000000000000000000000000000000000000000000000000000000000000000000000000000000000000000000000000PES00010000001 00000000000000020160401
201603040060000900000000000000000133000000000000000001339600000000027118222720UBALDE JORGE                  000000000083266000000000000000000000000000000000000000000000000000000000000000000000000000000000000000000000000000000000PES00010000001 00000000000000020160401
201603040010000900000000000000000333000000000000000003339600000000020222267677ZAJAC MARTÍN                  000000000529169000000000000000000000000000000000000000000000000000000000000000000000000000000000000000000000000000000000PES00010000001 00000000000000020160401
201603080010000900000000000000000334000000000000000003349600000000030713624302HOSTERIA LA ESTEPA            000000000814717000000000000000000000000000000000000000000000000000000000000000000000000000000000000000000000000000000000PES00010000001 00000000000000020160401
201603080010000900000000000000000335000000000000000003359600000000030710641176VEIGA MARIANO                 000000000300564000000000000000000000000000000000000000000000000000000000000000000000000000000000000000000000000000000000PES00010000001 00000000000000020160401
201603080010000900000000000000000336000000000000000003369600000000027292288315SALVATTORE JORGE              000000000799199000000000000000000000000000000000000000000000000000000000000000000000000000000000000000000000000000000000PES00010000001 00000000000000020160401
201603080010000900000000000000000337000000000000000003379600000000030708913193CLAULIZ S.A.                  000000000195990000000000000000000000000000000000000000000000000000000000000000000000000000000000000000000000000000000000PES00010000001 00000000000000020160401
201603080010000900000000000000000338000000000000000003389600000000030680277512ALLIEVI MARIA INES            000000000242121000000000000000000000000000000000000000000000000000000000000000000000000000000000000000000000000000000000PES00010000001 00000000000000020160401
201603080010000900000000000000000339000000000000000003399600000000030712179828SALADIN CARLA                 000000000297479000000000000000000000000000000000000000000000000000000000000000000000000000000000000000000000000000000000PES00010000001 00000000000000020160401
201603010010000900000000000000000325000000000000000003259600000000030708962038AGUINAGA MARCELO              000000000279899000000000000000000000000000000000000000000000000000000000000000000000000000000000000000000000000000000000PES00010000001 00000000000000020160401
201603100010000900000000000000000340000000000000000003409600000000020185601510RODRIGUEZ CENTENARO HERNAN HEC000000000058084000000000000000000000000000000000000000000000000000000000000000000000000000000000000000000000000000000000PES00010000001 00000000000000020160401
201603160060000900000000000000000137000000000000000001379600000000000023810101ROMERO ANALIA                 000000000005877000000000000000000000000000000000000000000000000000000000000000000000000000000000000000000000000000000000PES00010000001 00000000000000020160401
201603170010000900000000000000000344000000000000000003449600000000027060570154MIGUEZ NATALIA                000000000211266000000000000000000000000000000000000000000000000000000000000000000000000000000000000000000000000000000000PES00010000001 00000000000000020160401
201603180010000900000000000000000347000000000000000003479600000000030708757604URBAN AFFAIRS S.A.            000000002385578000000000000000000000000000000000000000000000000000000000000000000000000000000000000000000000000000000000PES00010000001 00000000000000020160401
201603030060000900000000000000000131000000000000000001319600000000000023810101ROMERO ANALIA                 000000000019305000000000000000000000000000000000000000000000000000000000000000000000000000000000000000000000000000000000PES00010000001 00000000000000020160401
201603100060000900000000000000000136000000000000000001369600000000000026158710SILVA ANDREA LORENA           000000000004064000000000000000000000000000000000000000000000000000000000000000000000000000000000000000000000000000000000PES00010000001 00000000000000020160401
201603170010000900000000000000000346000000000000000003469600000000027284102482LUCENTINI ROSANA PAOLA        000000000323688000000000000000000000000000000000000000000000000000000000000000000000000000000000000000000000000000000000PES00010000001 00000000000000020160401
201603180010000900000000000000000350000000000000000003509600000000030710641176VEIGA MARIANO                 000000000992200000000000000000000000000000000000000000000000000000000000000000000000000000000000000000000000000000000000PES00010000001 00000000000000020160401
201603210010000900000000000000000351000000000000000003519600000000023288472149STABIO LORENA                 000000000342211000000000000000000000000000000000000000000000000000000000000000000000000000000000000000000000000000000000PES00010000001 00000000000000020160401
201603210060000900000000000000000138000000000000000001389600000000027250887499TAZZIOLI DANIELA              000000000729715000000000000000000000000000000000000000000000000000000000000000000000000000000000000000000000000000000000PES00010000001 00000000000000020160401
201603180010000900000000000000000348000000000000000003489600000000030607219725SUR PACIFICO S.A.             000000002048714000000000000000000000000000000000000000000000000000000000000000000000000000000000000000000000000000000000PES00010000001 00000000000000020160401
201603220010000900000000000000000352000000000000000003529600000000030710641176VEIGA MARIANO                 000000000165418000000000000000000000000000000000000000000000000000000000000000000000000000000000000000000000000000000000PES00010000001 00000000000000020160401
201603220010000900000000000000000354000000000000000003549600000000030680779097WORLD GIFT S.A.               000000000866494000000000000000000000000000000000000000000000000000000000000000000000000000000000000000000000000000000000PES00010000001 00000000000000020160401
201603230030000900000000000000000030000000000000000000309600000000030710641176VEIGA MARIANO                 000000000041141000000000000000000000000000000000000000000000000000000000000000000000000000000000000000000000000000000000PES00010000001 00000000000000020160401
201603280010000900000000000000000359000000000000000003599600000000030599883394ALPARAMIS S.A.                000000000425654000000000000000000000000000000000000000000000000000000000000000000000000000000000000000000000000000000000PES00010000001 00000000000000020160401
201603290010000900000000000000000360000000000000000003609600000000030680277512ALLIEVI MARIA INES            000000000264385000000000000000000000000000000000000000000000000000000000000000000000000000000000000000000000000000000000PES00010000001 00000000000000020160401
201603090060000900000000000000000134000000000000000001349600000000000026158710SILVA ANDREA LORENA           000000000004452000000000000000000000000000000000000000000000000000000000000000000000000000000000000000000000000000000000PES00010000001 00000000000000020160401
201603220010000900000000000000000355000000000000000003559600000000030711311013VARGAS EMILIANO               000000000869609000000000000000000000000000000000000000000000000000000000000000000000000000000000000000000000000000000000PES00010000001 00000000000000020160401
201603280010000900000000000000000356000000000000000003569600000000030599883394ALPARAMIS S.A.                000000008914155000000000000000000000000000000000000000000000000000000000000000000000000000000000000000000000000000000000PES00010000001 00000000000000020160401
201603290010000900000000000000000361000000000000000003619600000000030644463490UNIKROM S.A. - ALVARO         000000000460090000000000000000000000000000000000000000000000000000000000000000000000000000000000000000000000000000000000PES00010000001 00000000000000020160401
201603290060000900000000000000000139000000000000000001399600000000020185411746GUSPAT (RELOJERIA)            000000000138530000000000000000000000000000000000000000000000000000000000000000000000000000000000000000000000000000000000PES00010000001 00000000000000020160401
201603300010000900000000000000000362000000000000000003629600000000020231250221CASTRO GERARDO                000000000230771000000000000000000000000000000000000000000000000000000000000000000000000000000000000000000000000000000000PES00010000001 00000000000000020160401
201603300060000900000000000000000140000000000000000001409600000000030709518441ZAYCA-GRANILLO FLOR.. Y BENOIT000000000126360000000000000000000000000000000000000000000000000000000000000000000000000000000000000000000000000000000000PES00010000001 00000000000000020160401
201603310060000900000000000000000141000000000000000001419600000000000034098258RECALDE IGNACIO               000000000006679000000000000000000000000000000000000000000000000000000000000000000000000000000000000000000000000000000000PES00010000001 00000000000000020160401
201603090060000900000000000000000135000000000000000001359600000000020225420794CONSAGRA PABLO                000000000402040000000000000000000000000000000000000000000000000000000000000000000000000000000000000000000000000000000000PES00010000001 00000000000000020160401
201603110010000900000000000000000341000000000000000003419600000000027179326138VELAZQUEZ MARIA ROSA          000000000407098000000000000000000000000000000000000000000000000000000000000000000000000000000000000000000000000000000000PES00010000001 00000000000000020160401
201603310060000900000000000000000142000000000000000001429600000000027176471064NILSSON MARCELA FERNANDA      000000000997292000000000000000000000000000000000000000000000000000000000000000000000000000000000000000000000000000000000PES00010000001 00000000000000020160401
201603310010000900000000000000000363000000000000000003639600000000020222267677ZAJAC FLORENCIA               000000000252794000000000000000000000000000000000000000000000000000000000000000000000000000000000000000000000000000000000PES00010000001 00000000000000020160401
201603160010000900000000000000000342000000000000000003429600000000030599883394ALPARAMIS S.A.                000000002787839000000000000000000000000000000000000000000000000000000000000000000000000000000000000000000000000000000000PES00010000001 00000000000000020160401
201603160010000900000000000000000343000000000000000003439600000000030710641176VEIGA MARIANO                 000000000859560000000000000000000000000000000000000000000000000000000000000000000000000000000000000000000000000000000000PES00010000001 00000000000000020160401
201603160030000900000000000000000029000000000000000000299600000000030710641176VEIGA MARIANO                 000000000079860000000000000000000000000000000000000000000000000000000000000000000000000000000000000000000000000000000000PES00010000001 00000000000000020160401
201603180010000900000000000000000349000000000000000003499600000000030708962038AGUINAGA MARCELO              000000000042571000000000000000000000000000000000000000000000000000000000000000000000000000000000000000000000000000000000PES00010000001 00000000000000020160401
201603170010000900000000000000000345000000000000000003459600000000020128059734LARA JORGE                    000000000380999000000000000000000000000000000000000000000000000000000000000000000000000000000000000000000000000000000000PES00010000001 00000000000000020160401
201603220010000900000000000000000353000000000000000003539600000000030596482283PAUL CARTY-TEXMAS             000000000348783000000000000000000000000000000000000000000000000000000000000000000000000000000000000000000000000000000000PES00010000001 00000000000000020160401
201603280010000900000000000000000357000000000000000003579600000000030710641176VEIGA MARIANO                 000000006439523000000000000000000000000000000000000000000000000000000000000000000000000000000000000000000000000000000000PES00010000001 00000000000000020160401
201603280030000900000000000000000031000000000000000000319600000000030710641176VEIGA MARIANO                 000000000370260000000000000000000000000000000000000000000000000000000000000000000000000000000000000000000000000000000000PES00010000001 00000000000000020160401
201603280010000900000000000000000358000000000000000003589600000000030710641176VEIGA MARIANO                 000000000168534000000000000000000000000000000000000000000000000000000000000000000000000000000000000000000000000000000000PES00010000001 00000000000000020160401
